:10000000A83B002089F20000C9BC010075F2000085
:1000100075F2000075F2000075F2000000000000AB
:10002000000000000000000000000000F1F30000EC
:1000300075F200000000000091F3000075F200006E
:10004000A9F50000BFD20100A9F50000A9F5000044
:10005000A9F50000A9F50000A9F50000A9F5000028
:10006000D5D20100A9F50000A9F50000A9D2010030
:10007000A9F50000A9F50000A9F50000A9F5000008
:10008000A9F50000A9F50000A9F50000A9F50000F8
:10009000A9F50000A9F50000A9F50000A9F50000E8
:1000A000A9F50000A9F50000A9F50000A9F50000D8
:0800B000A9F50000A9F500000C
:1000B800064B074A5B7802604FF41C728280C3715A
:1000C8000822002382710372704700BFA007002036
:1000D8002FDF0000064B074A9B7802604FF49072AE
:1000E8008280C3710822FF2382710372704700BFA8
:1000F800A0070020B7DA0000F8B5C41D002824F0D6
:100108000704054614BF2046002000F027FB071E01
:1001180002DA6FF00B00F8BD0DB9FC42F9D4294E94
:100128003189F088F37AB27A0331033089B280B228
:100138000BF0D1FC0028ECDB317873783C440334B5
:10014800002D194424F0030400FB01F114BF2046DC
:10015800002000F08FFC20440DB90028D9DBB278CC
:100168000346B2B1F17CF37811441944FF29D0DC7D
:100178000330002D20F0030414BF20460020F2892C
:10018800C9B200F0E7FC031EC3DB23440DB9002B02
:10019800BFDB317C81B1B27872B10733002D23F017
:1001A800070414BF2046002003F0B2FF031EB0DB93
:1001B80023440DB9002BACDB002D0CBF18460020E2
:1001C800A9E700BFA00700201FB572B6184BDD6A6B
:1001D800E5B9BFF34F8F1749174BCA6802F4E062BD
:1001E8001343CB60BFF34F8F00BFFDE7B2FBF6F2BE
:1001F800DCB20133002AF9D104F110036B4403F88F
:100208000C2C0A2234B901A8A847E2E702460023C9
:100218000A26EDE7631E04AEDCB256FA83F3B0FBA0
:10022800F2F602FB1600303003F80C0C3046E9E712
:10023800A007002000ED00E00400FA0507B50C4B0C
:10024800DA7A8DF801209A7A8DF8002068461A89A2
:10025800DB88ADF80420ADF8023002F037FB18B1A6
:10026800E8219C20FFF7B0FF03B05DF804FB00BF56
:10027800A007002038B5054668B30AF015FB10B989
:100288004FF0FF3038BD07F0C9FAB0F5FA7FF7D85C
:10029800134C1448E562002500F0DAF92A222946B1
:1002A800204684F830500AF093FE01236370A3704F
:1002B8001B23E380238140F2032363811F23E3810F
:1002C80008232374EFF3108472B600F019FD2CB9DB
:1002D80062B62046D6E76FF01500D3E72846D1E787
:1002E800A00700204502000010B5002842D1244C88
:1002F80094F83030032B3AD059B1002A3DD0023956
:10030800052937D8DFE801F0031428362B2E137897
:1003180063700020FFF7F0FE0028B7BF0123022317
:1003280084F830306FF00B00A8BF84F8303010BD6F
:10033800137913B3537903B31188FB291DD81A29EC
:1003480053881AD91B3BE02B17D81368C4F806301A
:100358000C4B92889A80DCE71378A370D9E713884E
:10036800E381D6E71388FF2B07D82374D1E74FF032
:10037800FF30DCE76FF02C00D9E76FF01500D6E707
:10038800A0070020A6070020F8B50D46064630B3A2
:1003980029B311F0070422D1124F97F83030012BFE
:1003A80002D16FF00B00F8BD032B02D14FF0FF30E4
:1003B800F9E700F08FF80028F8D02846FFF79CFEF0
:1003C8000028EEDB0DF014FE3046214602F004FB57
:1003D800FFF734FF032387F830302046E3E76FF058
:1003E8001500E0E7A007002010B5074C94F830305E
:1003F800032B03D102F008FB03F0AEF90BF061FC0C
:10040800002084F8300010BDA007002050B1074B31
:1004180003F1140253F8041B40F8041B9342F9D16A
:10042800002070476FF01500704700BF94DD010091
:1004380010B5074B93F830403CB902F097FA012009
:10044800044900F083F9204610BD4FF0FF30FBE768
:10045800A0070020DD00000010B5074B93F83040DE
:100468003CB902F097FA2046044900F06FF920469B
:1004780010BD4FF0FF30FBE7A0070020B9000000D7
:1004880010B5054B93F830401CB90CF09EFB204684
:1004980010BD4FF0FF30FBE7A007002010B5054B5B
:1004A80093F830401CB90CF093FB204610BD4FF078
:1004B800FF30FBE7A0070020024B02681A6000200B
:1004C800704700BFD4070020014B1B68184700BFC6
:1004D800D4070020024B1868003818BF0120704765
:1004E800D40700202DE9F743264E0446071D25486A
:1004F800376003F049F90228054607D1214920460B
:100508000AF09BFE284603B0BDE8F0830428F9D121
:100518003378072B18D13E2000F04AF878B9F378E1
:10052800327901A943EA02236846ADF800300BF09E
:10053800C7F80028DBD053210820FFF745FE052027
:1005480000F076F80028EAD0314620460AF0A4FEEA
:10055800B0F5817F01D37221EEE70028C7D094F867
:10056800008094F80290404600F022F80028BED09F
:10057800B8F13E0FC6D1484600F05AF80028C1D15C
:10058800B5E700BFD8070020074B4FF0FF3141F611
:10059800FF72C3E9001205490022C1E900221F21A8
:1005A800C3E90212704700BF000000201C080020A9
:1005B8003F280CD801380B4BC0F3421200F01F0043
:1005C80053F8223023FA00F000F001007047FF28AA
:1005D80006D04038C0F34212034B00F01F00EFE78B
:1005E80001207047000000201C0800200146074B2E
:1005F800006849681A4603C240F48C221A6041F028
:10060800107242F4FF625A60704700BF0000002079
:100618000246024B0068516803C370471C0800205B
:100628000246024B0068516803C370470800002067
:100638000138064BC0F3421203EB820300F01F009F
:100648009B6823FA00F000F00100704700000020CA
:10065800014B1860704700BF2408002010B5FFF751
:1006680093FF0BF042FF034B1B68044603B1984706
:10067800204610BD240800200B880288F0B5C3F37B
:100688000E049EB204F11803C57CC35A02352A44ED
:100698002B4497B213FA82F3013B4288B3FBF7F37A
:1006A80013FB07439BB29A42044A93BF22EA06030C
:1006B800324013439BB20B80F0BD00BF0080FFFFA8
:1006C8004A1E062A08B50346084604D84FF4D171D5
:1006D8001520FFF779FD094A914202D940F2A3118A
:1006E800F6E711B903B1196008BD2BB11B680022E8
:1006F800C3E901211A1D1A600430F5E7FAFFFF7FEC
:1007080010B5114B00EB41041A786389B3FBF2F37F
:1007180003FB0223013A1A44B2F5706F027928BF2D
:1007280000231A448378B2FBF3F0194403FB10202A
:10073800091AB1FBF3F003FB101313446FEA4343A8
:100748006FEA5343638110BD28080020024B03EB76
:1007580080035960704700BF280800202DE9F04F3A
:1007680010F0070A85B0054604D040F26111172041
:10077800FFF72AFD554F07F10C06B1460446B0466F
:100788004FF0010B57F8043B8DF80BA03BB101A8C3
:1007980098479DF80A30082B01D9E821E7E79DF82A
:1007A8000B1081BB05B13160B94506F10406E9D1EA
:1007B8002DB3DFF81CE100238EF800301E4602221C
:1007C80058F82200013A60B190F804A08178BAF193
:1007D800FF0F66D14FF000078E4207713CBFCEB2C3
:1007E8000123511CECD10BB18EF80060022640F6B3
:1007F800FF6A58F82670002F65D1013EF9D2601BB8
:1008080005B0BDE8F08F9DF80AC0BCF1020FE646BE
:1008180001F1050238BF4FF0020E0EF1FF3004EB74
:1008280042040444CEF100002040BDF8084064446E
:10083800013CCCF1000C04EA0C04B4F5803F4FEA0B
:10084800420301D3F82192E775B1C31A3360997056
:100858001C8083F803B09DF80C201A71019A1A8144
:100868004FEA124CA3F806C004FB01049CE758F8B1
:100878002C90B9F1000F06D099F804B0D34504BF05
:1008880099F802904F440CF1FF3CBCF1000FEEDAEE
:100898003944FF29A0D90BB18EF8006040F2271126
:1008A80065E794460027F0E707EB41033846A3F8CD
:1008B8000AA0FFF725FF09F10109BB785FFA89F162
:1008C8008B42F1D899E74FF00009F6E72C08002091
:1008D80028080020F8B54FF6FF730380184B03EB88
:1008E800810305461869B8B186780379B3FBF6F237
:1008F80006FB1233DBB219460A1D00EB4202B2F9BD
:1009080002705488002F09DB0131B1FBF6F206FBB7
:100918001211C9B28B42EFD10020F8BDFF29FBD0DC
:10092800C4F30E03C4782B8024B94FF4D571172073
:10093800FFF74AFC5380BDE8F8400BF0ABB800BFA6
:10094800280800201D4B03EB810370B51C69054680
:1009580044B3030404D54FF4DC711720FFF734FCCB
:10096800014620460BF078F8FF28014604D02046BF
:10097800BDE870400BF08EB8A078B5FBF0F300FB33
:100988001353DBB219460A1D04EB4206B6F902609E
:10099800002E09DB0131B1FBF0F200FB1211C9B2E4
:1009A8008B42F0D1002070BDFF29FBD08B4204EBB5
:1009B80042021CBF0023E3705580D8E728080020B6
:1009C800094B03EB810310B51C69014620460BF067
:1009D80043F8FF28014604D02046BDE810400BF03C
:1009E80059B8002010BD00BF28080020F8B5104BEA
:1009F80003EB810307461C69014620460BF02CF8DF
:100A0800FF28054611D0E688238953EA064606D012
:100A1800014620460BF03EF801463846B0472046CE
:100A28002946FFF76DFE0020F8BD0520FCE700BF52
:100A38002808002038B50E4B827903EB8203044660
:100A4800186908B9052038BD8278E1799142F9D250
:100A58004B1CE37100EB41035D89B3F90A30002BAD
:100A6800F3DBA5800BF016F820600020EBE700BF51
:100A78002808002070B5044610F003000E4603D085
:100A88004E211820FFF7A0FBFFF71AFE054624B1F8
:100A9800034831460460FFF713FE284670BD00BFC7
:100AA800440800202DE9F14FDFF870B09DF828A028
:100AB8009DF82C901E46DBF8003007460D46904600
:100AC8001BB960211820FFF77FFB524609214046D9
:100AD8000AF044FE4A4684B2092130460AF03EFE36
:100AE80014FA80F1DBF800000AF08BFF386018B9BF
:100AF800286001B0BDE8F08F04442C603868534684
:100B0800414609220AF0EEFD28684B460922314683
:100B180001B0BDE8F04F0AF0E5BD00BF4408002071
:100B280070B50E4604460AF02CFE054630460AF01B
:100B380028FE044B2A1821461868BDE870400AF0C0
:100B480084BF00BF44080020014B18680AF04DBF5D
:100B5800440800201F2AF8B5044613460ED8920010
:100B6800033222F00303B3F5803F2DD2184DACB108
:100B7800A00710D05F210920FFF726FBFF2B4FEAC3
:100B8800420204D9FF339A42A8BF1A46E8E77C2AF2
:100B9800B8BF7C22E4E729706C602B8122F0030245
:100BA80001EB81031204D80001276B68120C0025A1
:100BB800EEB28E4200D3F8BD14B126181F705E60E5
:100BC800104401352833F3E74FF0FF30F3E700BF57
:100BD8004808002038B5144A147853680021C8B270
:100BE800844203D8AB210920FFF7EEFA18460131F9
:100BF80005782833002DF2D0002181700124128954
:100C0800447044688161C161920800F12001051DAA
:100C180021F8022B994245F8044B1444F8D10023DB
:100C28004361037038BD00BF480800202DE9F84330
:100C38004B7880460C4602F0040602F0FB07D3B15D
:100C4800DFB12E4BD4F804901D89B7BB0123637024
:100C5800AD08A761E76104F120034A46211D04F1AC
:100C6800280023F8025B984241F8042B2A44F8D163
:100C78000023636101E0002FE3D0FF23A370002E5F
:100C880018BF0226A3191B7D032B03D1022F1CBFFB
:100C98000136F6B2A31901221A7506F10C0204EB0B
:100CA8008606002324F812307268A370C8F8002062
:100CB800A8F804304046BDE8F8830021142261708A
:100CC800A0180AF085F9B5F5FF7F0FD26B08ED1A69
:100CD800ADB209EB0502C4F804902584A2606384D0
:100CE800C4F80C90A5842261E384C6E7B5F5EE6FDD
:100CF8004FF0FF03EBD940F27265EAE7480800209D
:100D0800134B012200214FF0FF309A60C3F8001204
:100D1800C3F80803C3F80015C3F804259A60C3F89C
:100D28000803C3F80015C3F804250A490A4A03F55D
:100D380080334FF40040C3F80825C1F88000BFF3A2
:100D48004F8FBFF36F8FC1F88001C3F80825704734
:100D580000F0004000E100E00000F63F0A461923D9
:100D680002F8033B0448C368C1F8033003695360C1
:100D780043699360704700BF54080020024B5A8CA7
:100D880002435A845B6A184754080020014B00212B
:100D98005B6A18475408002010B5154C05F074FD1F
:100DA80005F0F4F8208DFFF7F1FF237E63B12246AA
:100DB800104952F80C3BE3606368536004F1190072
:100DC800A36893600CF0F8FA0B4B228D93E80300AC
:100DD80003F028FA236B188803F04EF9A36B94F8F4
:100DE800341094F835009847002384F83C3010BD3F
:100DF80054080020650D000080080020034B93F87C
:100E08003C300BB1FFF7C8BF704700BF5408002043
:100E180070B51E4C256B636C236495F88C300646C0
:100E280094F848000BB10430C0B295F869102EB997
:100E3800FF2803D195F868308B4201D005F0B0FB4C
:100E480095F88C30E3B1E06C05F0BEFD012384F821
:100E58006830D5F8E8302366E16CD5F8EC30206CC2
:100E6800636605F049F816B9304605F0F5FD95F8C2
:100E78006810002005F03AFE022384F83C3070BD6B
:100E8800206C05F0A1FD05F081F8ECE7540800207E
:100E980008B5094B93F83C20022A04D040F23121CE
:100EA8002720FFF791F9DA7A42F00102DA72BDE8F9
:100EB8000840FFF771BF00BF54080020032810B591
:100EC8000A4B044605D15A6FD278022A01D1002074
:100ED80010BD986F0AF0D5FC0028F9D1032CF6D084
:100EE80001F06EFF80F00100C0B2F1E75408002065
:100EF8002DE9F043464C94F83C30012B85B006466A
:100F08000F465FFA83F904D040F2DC412720FFF74F
:100F18005BF9256B616F02A80AF0D5FE95F87C3065
:100F28009DF808803BB1002185F87C100420FFF76C
:100F380025FF85F87E90B8F1030F63D195F88230CC
:100F48001BB9616F0220FFF719FF032300E001239B
:100F580085F8823095F88C30C3B1236BD5F8E8203A
:100F680093F8690022664FF00108D5F8EC20626614
:100F780084F868800AF0B8FE94F848902549002261
:100F88000346009240464A4604F070FF26B105B079
:100F9800BDE8F043FFF700BF002FF8D0E36F3046FD
:100FA80098470028F3D094F83430002BEFD194F808
:100FB8008030DD06C3F3001005D5636F187800F0A4
:100FC8000300FFF77BFF636CD4F884201B78C3F31E
:100FD80000132AB9B4F8882013B1B2FA82F35B0976
:100FE800628C910709D5636FDB78022BCFD1002083
:100FF80005B0BDE8F043FFF70BBF002AC7D1034394
:10100800F5D1C4E79DF80C30002BA0D002239FE750
:1010180054080020A408002010B5094CD4F88430E6
:1010280023B940F2CE412720FFF7CEF8B4F8882044
:10103800216C033218460AF037F8206410BD00BF4F
:101048005408002010B5064B93F83C2002F0FF042A
:1010580022B91C7603F0DEF8204610BD0C24FBE70D
:10106800540800200A4B0B4A70B506460D461A6014
:10107800FFF7E8FF18B1ED212720FFF7A5F8064C88
:10108800012104F18A000CF007F96664E56470BD7B
:1010980048000020AC18000054080020024B012230
:1010A80083F8AC20704700BF54080020F0B57D4C91
:1010B80085B002AE86E8030094F83C100A9F01F060
:1010C800FF0511B90AB103B127B94FF4BE71272042
:1010D800FFF77AF896E8030004F12C0C8CE803007B
:1010E80084F8AC5084F8345084F8AD5084F8355006
:1010F80084F8AE5084F8AF5065842585256BE36786
:101108006262A76305F090FA04F040FF95F9700059
:1011180005F018FB686A05F049FCE86905F018FB5A
:1011280095F89C0005F01EFB236B93F89F310BB1DB
:1011380005F068FA95F869209D21012005F090FBDB
:10114800594B186805F038FC2B69A367574A6B6937
:10115800C4F8B03005F5807105F1F00353F8040BBD
:1011680042F8040B8B42F9D1D5F80021C4F8692064
:101178005A684F4B5A60236B93F88620A2F12501D9
:10118800012993F868100E4603D993F8870025289B
:101198005FD193F846322BB1012E03D0012B14BF37
:1011A8000226012605F13007314638460CF041F990
:1011B80031460BF0DCFEAB8F95F86910834228BFEF
:1011C8000346384684F8B4300CF023F995F86910D2
:1011D80095F88C70B5F84460042908BF03210BF01A
:1011E800C6FE0FB9043080B2B04228BF304695F829
:1011F8008C30C6B284F8B56084F84860A3B1D5F8DD
:10120800E83095F8690023660127D5F8EC30636665
:1012180084F868700AF068FD0022034600922349AA
:101228003246384604F022FE0120FFF7F1FD002384
:1012380023606360A360B5F8803063802B882380C7
:1012480095F89C302371EB6E0BB101221A6005B042
:10125800F0BD203A012A0CD8232893F826210AD079
:1012680012F0010319D192079CD5012918BF022653
:1012780098E723280DD193F8262193F8613013407D
:1012880013F001020BD19B078CD5012908BF0E462C
:10129800ECE7032908BF042684E71E4682E71646C2
:1012A80080E700BF5408002048000020A408002060
:1012B800BD08002008B50C4B93F83C201AB9BDE8CE
:1012C8000840FFF769BD93F83C20022A04D040F299
:1012D80013212720FEF778FF1B6BD3F8B801BDE870
:1012E800084005F08BBB00BF54080020014B18765E
:1012F800704700BF54080020014B93F8AE007047B8
:1013080054080020024B188DC0F3C020704700BF5E
:1013180054080020014B93F8AD0070475408002092
:101328002DE9FF41324C03460E4602A8216C256B7D
:101338000AF0C9FC13F001089DF80C7003F00200D4
:101348002BD0002384F8B63090B1FFF765FE0DF17D
:10135800020201A9D4F8B0000AF03DFB01980AF096
:1013680020FB012230603946D4F8B0000AF0C8FAF0
:10137800B8F1000F0ED0D5E93A32013342F100023C
:10138800C5E93A3295F88430012B0CBF00230123BC
:1013980085F8843004B0BDE8F08194F8B630032BAA
:1013A80020D801A252F823F051130000C113000005
:1013B800DB130000DB1300000028EBD0FFF72CFE46
:1013C800D4F8B0000022394604B0BDE8F0410AF074
:1013D80097BA0028DED0D4F8B00004B0BDE8F041D8
:1013E8000AF0F5BA40F27A412720FEF7EDFE00BF79
:1013F800540800202DE9F04FA84C002389B0CDE90E
:10140800043394F83C30276B022B80468A4604D07C
:1014180040F25F512720FEF7D7FE238D590606D4E8
:101428004020FFF7B3FC238D43F040032385216C54
:1014380006A80AF048FC97F88C30B8F1000F00F0C5
:10144800C9809DF819B09DF81C507BB104F0B6FD19
:1014580060B95DB197F884305B4507D1012384F802
:101468003530FFF799FC09B0BDE8F08FA9B2A4F8B0
:101478008810F1B1D4F8B0000AF024FAC4F8840056
:10148800238D9DF81A2043F40073238597F8833041
:101498009A4277D0266B96F88230002B3ED0022BEA
:1014A80011D1A06F04A90AF0B6F928B940F2144185
:1014B800B0E7C4F88410E3E7D6E93832013342F1E3
:1014C8000002C6E9383296F87E30002186F882108C
:1014D80023B186F87E101020FFF750FC96F87D3077
:1014E800A3B14FF0000986F87D9001F053FC10B9C4
:1014F80040F22B418EE749460820FFF73FFCD6E92A
:101508003832013342F10002C6E9383296F88330A6
:10151800012B0CBF0023012386F88330238D43F46D
:10152800006323854FF0000997F884305B4527D185
:101538009DF81830266B022B26D88BB385B3238DE4
:1015480096F88C6043F48053238504F0DFFF042869
:1015580094F8B53006D1002E14BF1B221F229342E7
:1015680028BF1346AB422BD3D4F88450002D3FD06C
:1015780094F8AC30002B00F08F802020FFF706FC99
:10158800002535E0C146CFE7032B09D1238D216C17
:10159800012043F4805386F87C002385FFF7EEFB97
:1015A80096F88430013B18BF012386F88430FDB1DA
:1015B800D6E93A32013342F10002C6E93A32DFE7AE
:1015C80094F83430012043F0100384F8343006F0E6
:1015D800D9FAD5E70BB104F02DFD94F8AD300133FD
:1015E80084F8AD30238D002543F480632385A94614
:1015F80097F88B309BB1D7F8E03097F868002366EE
:101608000026D7F8E430636684F868600AF06CFB5B
:10161800234900960346FB22304604F027FCBAF122
:10162800000F3FD1628C94F8AD30120703D5626F7A
:10163800D278022A36D0012B34D8E36F012098479C
:1016480080B394F834A0BAF1000F2BD11DB105A9CD
:101658000120FFF765FE266B96F88C2000238DF895
:101668000D3094F848300AB10433DBB2FF2B96F8FA
:10167800681003D196F869308B4202D0FF2004F03D
:101688008FFF96F88230032B00F2F380DFE813F027
:1016980054008400D800E9004546A9E75408002012
:1016A800A408002005F042FA002D00F0EA8005A900
:1016B8000320FFF735FEB9F1000F0DD0B4F807206D
:1016C800B4F805301343B7F8802013431EBFB4F8AD
:1016D80009300133A4F80930B8F1000F00F0D380C5
:1016E800B4F805300133A4F80530002384F8AD3090
:1016F800684802F0AFFC049830B10AF052F9216B47
:101708000022027202F084F8059B33B1216B00229B
:101718001A720C22059802F049F8002D7FF4A1AE48
:10172800238D1B063FF59FAE8020FFF72FFB238DEF
:1017380043F08003238596E694F8B430ADF80E3074
:101748005548A6F8583001F015FB50B1616F4FF4B9
:101758008070FFF713FB012386F87D3084F8AF30E3
:101768001CE0A06F0DF10D020DF10E010AF030F82A
:10177800606788B196F8C73073B99DF80D302BB9FA
:1017880003808370606F01210BF086FD636FBDF8E5
:101798000E205A700123E1E7404B6367616F96F8AA
:1017A80083300878DB0003F0080200F0F3031343EA
:1017B80096F88420920002F00402134323F01003E9
:1017C8000B7000F00300FFF779FB0028606F0378C7
:1017D80018BF4FF0100A4AEA030A80F800A096F8EA
:1017E8008B30002B48D04378002B45D0E06C05F0B7
:1017F800EBF8002384F86830D6F8E0302366616F90
:10180800D6F8E430E06C636604F076FB96F869106D
:10181800012005F06BF9626F1188A4F880109178A7
:101828001F4A012384F8AE30917084F83C30002DB3
:101838003FF441AF05A90220FFF772FD00253AE702
:10184800B6F85830A06FADF80E300DF10D020DF15D
:101858000E0109F0BDFF606700289BD140F2D1213D
:10186800D8E50D4801F086FA002893D140F2DB2133
:10187800D0E540F2E921CDE505F0A6F804F086FBB5
:10188800C4E7012517E7B4F807300133A4F8073097
:101898002EE700BF80080020C8080020DE080020CE
:1018A800D4080020990E0000FD130000F90E000076
:1018B800050E00000B2808B504D940F2FB310620BC
:1018C800FEF782FC014B33F8100008BDA8DD0100CB
:1018D8002DE9F04F8BB0044615460293894690F8DF
:1018E80069B00BF0BCF9064694F8A001FFF7E2FFD7
:1018F80094F887300393064485F00103B6B2059344
:1019080085BB94F8E431032B2CD1039B0D2B29D1F3
:10191800B4F844324B4525D1D4F8EC31C4F8D83169
:10192800A369B4F8BC21C4F8DC31B4F832321344EA
:10193800C4F8E031204604F0C5F9D4E99223A26244
:10194800B4F84622A285D4F85022226241F64B52BE
:101958009342A3618CBF0023012384F872300223D1
:1019680084F8E431B4F83072B4F88080A9EB070742
:101978003FB204F50073A9EB0808002F04930FFA8F
:1019880088F86EDAD4E986234746C4E98A23012316
:101998000493CC4B1B7803F0FF05002B54D005F0C3
:1019A80031FF054600284FD0B4F8D031012B6DD94E
:1019B80094F8E431022B69D094F8FA51002D65D1DE
:1019C80094F8A001FFF776FF94F8E43100F5C866B3
:1019D800012BB6B2D9B24CD194F88A30D4F828A0E9
:1019E800032B40D1D4F8DC5155443146D4F8DC01FE
:1019F80005F0CCFED4F8D831C4F8D801A0EB030A1E
:101A0800D4F8E0313146284603FB0AFA05F0BEFE59
:101A1800D4F8E851C4F8E801451B3146A06905F03F
:101A2800B5FEAA44B4F8BC51D4F8E0314544ED1BE6
:101A3800DB432B44D4F8EC51451B05FB03A50123DC
:101A4800C4F8EC0184F8FA3194F8E431DFF874A2B0
:101A5800032B00F28E81DFE813F01B0016016B00E8
:101A68003701029B94E728460BF0A9FA00EB0A0518
:101A7800BBE7A069314605F089FEB4F8BC51D4F83B
:101A8800EC314544ED1BC31A5D43D8E70025DBE77D
:101A9800012100200BF093FA8046A06A31464044A9
:101AA80005F074FE3146C4F8E801A06905F06EFE41
:101AB80007A9C4F8EC0108A805F040F8079B0093B3
:101AC800D4E98A01DDE9082308F0D4FD83462046DD
:101AD8000AF02EF9D4F83432A66A94F869001E4444
:101AE80005F078F9D4F8E811A6F194077F1A00F503
:101AF80023404FF47A734744A130B0FBF3F0A38D31
:101B0800A7EB0B0730313F1A03EB410194F869004A
:101B18000AF0FAF8D4F83432FB1A2230B3F5917F80
:101B2800CAF8040058D240F2DE413020FEF74CFBE0
:101B3800A36AD4F8DC013146184405F027FE314683
:101B4800C4F8E801A06905F021FEC4F8EC012046BC
:101B58000AF0EEF8B4F8BC31A66AD4F8DC71002BB0
:101B680040F08D80029B002B00F0898094F869007A
:101B780005F030F93E44D4F8E871943ED4E9862360
:101B8800F61BD4F8207280463E4494F86900B61AD1
:101B980005F020F94FF47A7300F2E73708F523408F
:101BA800B7FBF3F73744A130B0FBF3F0D4F8E811F2
:101BB800D4F8D831D4F8E021303102FB0311A38DD9
:101BC8003F1A03EB410194F869000AF09DF80123DC
:101BD800CAF8040084F8E431A6696FF4F4731E446B
:101BE800D4F8EC31F61ADAF804309E4228BF1E46C3
:101BF800D4E98A327F1BDF1942F100024FF0000856
:101C0800C4E98472C4F8B86184F8008204F1300031
:101C18000BF0FDFBB4F8A811A4F83092D4E98423A2
:101C2800A1EB09090FFA89F9C145C4E98A23C8BF9C
:101C3800022384F80882C8BF84F80832039B06444C
:101C48000D2BC4F80462029B00F09680002B40F034
:101C5800948094F8E431002B00F0AD80A169D4F8A9
:101C6800EC3104F50070C91A0BF050F980B2002865
:101C780000F0A180149B03B118800120ABE0D4F8D8
:101C8800E801374492E7D4F8EC21A369D4F8E001DD
:101C9800D4F8D8119B1A5F43B4F8BC319844C343B5
:101CA8009844D4F8E831303301FB0033A18D94F81F
:101CB800690002FB083301EB43010AF025F8CAF872
:101CC800040089E70C090020A369D4F8EC219B1AC9
:101CD8005F4394F88630252B03D094F88730252B62
:101CE8000AD1B4F84432A9EB03031A0404D494F8D3
:101CF8004732002B18BF9B46049B63B3B4F8BC3132
:101D08004BBBD4E98623D4E9880182428B4102D3B4
:101D180040F2325109E794F8690005F05BF8D4F80D
:101D280020220646D4E98601A2F194031B1A3B44FB
:101D380094F86900049305F04DF8049B00F2E73726
:101D48004FF47A7206F52340B7FBF2F71F44A1302F
:101D5800B0FBF2F03F1AB4F8BC11D4F8EC314144AE
:101D6800594330314900584609F0CEFF1B4B5860A3
:101D780032E740F24A51D8E6EBB1B4F8D01121B3BA
:101D8800B4F8D22194F8D431A4F8D22102FB033359
:101D9800994202F101000EDD94F808325BB100238C
:101DA80084F80832A4F8D20101F0B4FD00F007006D
:101DB800013084F8D40194F8FB0104F5007107F0B0
:101DC800A1FC20B940F29351AFE60A46DAE7059B39
:101DD80084F8F83100200BB0BDE8F08F0C09002022
:101DE8002DE9F04104460D46164690F8F03003F010
:101DF800FF071BB10C273846BDE8F081014645486E
:101E080007F034FB20288046F4D05822394604F1E4
:101E1800C80009F0DDF884F8C880C4F8CC50FF2366
:101E280084F8F03035B101F08DFD00F00700013085
:101E380085F8D40102234FF00008A4F8003184F893
:101E4800F88005F0F5FC00F19E0520460BF016FF22
:101E5800ADB2014670B30AF002FF00F5CD6189B258
:101E6800304605F093FC3044C4F8FC000CF0ECF963
:101E7800281841F10001C4E94201012084F8D0008A
:101E8800A4F826800BF0B8FFE53E361AC4F8D460F3
:101E98004FF0FF326FF00043C4E9442394F8C800C0
:101EA80004F1F80107F02EFC48BB40F2CD113020B8
:101EB800FEF78AF920460BF004FEDFF85C80E53077
:101EC800C4F8FC00B8F8080048B1E08C38B101F05B
:101ED80039FDB8F80830B0FBF3F202FB13000544F3
:101EE8000CF0B2F92D1841F10001C4E94251002E5D
:101EF800CED0751941F10001C4E94451CEE7D4E9C7
:101F080042230021C4E93823C4E93A2320460BF0D0
:101F1800D2FE70E7E1BF00000C090020F0B50023F5
:101F280085B0CDE9003301238DF806306846FEF709
:101F380081FD70B11D4E0123B3720027CDE90277F0
:101F480002A8FEF777FD0546C8B10023B37205B0B5
:101F5800F0BD00980AF0FAF8E8E790F8FB0107F0FE
:101F680023FE94F8FB0108F043FA94F8FB0184F887
:101F7800E45107F0AFFA202384F8FB31DEE7029B37
:101F8800002BDDD093F8FB21202AD9D018884FF6F2
:101F9800FF739842D9D02946FEF712FD044600285F
:101FA800DBD14FF49B713020FEF70EF90C090020AD
:101FB800054B00220121DA7219709A7242F21072EE
:101FC8001A81FFF7ABBF00BF0C090020014BD87284
:101FD800704700BF0C09002008B504F09DFA044BB7
:101FE800DA6882422ABF987A002080F0010008BD92
:101FF8000C0900202DE9F7430446062900F2C580A4
:10200800DFE801F0047A67777E83BE00D0E9862393
:10201800D0E9880182428B4149D294F8FA31002BE9
:1020280045D094F8E431032B41D194F869900AF033
:1020380016FE064694F8A001FFF73CFCD4E9862377
:10204800D4F82072D4F8B851804606444846BF1ADE
:1020580004F0B8FE2D1A484604F0BCFE00F52340F3
:102068004FF47A73A130B0FBF3F02B1AA3F174028A
:10207800B6B25208D43B08F5C8689D3273431FFABC
:1020880088F8B3FBF8F360335908A2EB53039F4277
:1020980002D30A44974201D905F0BAFBA069314638
:1020A80005F074FB0023C4F8EC0184F8FA31384BCE
:1020B8009B7A03F0FF0263B9B4F8AC1100920123D4
:1020C8002046FFF705FC38B140F2DC613020FEF70E
:1020D8007BF8042384F8E43104F028FC06F0E4FFDC
:1020E800B4F88020A4F8F6210023A4F8323284F84A
:1020F800F93103B0BDE8F083032380F8E431F8E751
:102108000BF0DFFFC4E98801F3E78569D0F8EC310B
:10211800DFF87C809D4288BFED1A98F80B3098BF95
:1021280000251BB9036B9D4228BF1D4604F13000F2
:10213800D4F8B8710BF06BF90744022007F0B8FF28
:10214800ED1B25EAE575854228BF0546022128468C
:1021580008F016F800B92F44012340F2D31239468B
:1021680020460BF0A4F9D4F8B831C8F80C00A069DF
:10217800184407F035FF0028BBD140F28A31A5E7A3
:1021880003B0BDE8F04309F0D3BD4FF4F3619DE718
:102198000C0900202DE9F84306460C4615467ABB83
:1021A80004F0BAF9D4E94289074684F8D05084F893
:1021B800F0500121D4F8CC0001F040F8D4F8CC005C
:1021C800C0E9868994F8C83080F8FB31C0E98A896B
:1021D800C0F8347209F0B2FE20B140F21C71302010
:1021E800FDF7F2FF04F0A2FB06F05EFF074994F842
:1021F800C800324605F0B6FC28B940F2AB71EEE7EC
:1022080040F2C271EBE7BDE8F88300BF63BD000090
:10221800014B1881704700BF0C090020F0B5070C6E
:10222800A7F5AA42144B543A012A03EA90231FD96E
:1022380027F4004042F6AA22801A18BF0120002283
:10224800162116461F2487EA060562EA05050135A8
:1022580010D0DD03ADB245EA5606E503ADB201394B
:1022680045EA52024FEA53034FEA5404EBD1F0BD5A
:102278000020E4E70020FAE7E0FF3F0010B5012165
:102288000020FEF79DFB044670B90121FEF75AFBBA
:10229800044620B940F291313920FDF795FF034BF0
:1022A80093F906100BF0D5FB204610BD1C09002041
:1022B80008B50AF0DEFD00F0CDFE00F0D5FB0BF00E
:1022C80053F801F05DF801F035FF094B00221A6060
:1022D800084B1B214FF4A47098801A805980064B34
:1022E800064818605A829A7599805A749A8208BD6D
:1022F8004C0000201C090020440D002003021B0094
:10230800044B41F64C52C3E902221B221A74FFF710
:10231800CFBF00BF440D00202DE9FF41344DAB680D
:102328000363344B8361044609F047FF064600F017
:102338008BFB2B7C84F838302F4B668710F0200FEE
:102348001B681DBFAA886988A4F85A101B2208BFF9
:10235800A4F85A20A4F85C201BB194F970102088C6
:102368009847AE7CEF7CB5F8148016B900F072FB84
:10237800064687BB00F06EFB074676B368B303A931
:1023880020468DF80C608DF80D70ADF80E800AF0BF
:1023980012FE01236A88E385AB88697801910333CB
:1023A8002978009103329BB292B204F1140104F12E
:1023B8001000FEF777FB236913B940F24E6114E071
:1023C800636913B940F24F610FE0002004B0BDE823
:1023D800F0810920FAE7002ED1D120880021FEF7EC
:1023E80005FB0028F5D040F224613920FDF7ECFE0A
:1023F800440D002000093D0050000020F7B50546B7
:102408000E460BF059FB002874D028460BF036FC1A
:1024180040B1B6F80130013B7F2B03D91224204686
:1024280003B0F0BD28460BF02DFC08B90C24F6E7E4
:10243800284609F077FF0028F8D128460BF0FAFA69
:1024480004460028F2D1284602F034FB0028E5D0E3
:10245800B6F80170F17842F2107328465F430BF02A
:10246800F9FB28460BF002FC014658B93A462846C3
:10247800FFF7B6FC04460028D1D041F69F31392039
:10248800FDF7A2FE21460DF10600FEF723FA0646E7
:1024980070B3214600F0D2FEBDF8063033802846DE
:1024A80031460BF0F9FB28460BF0F2FBA0B9296A7C
:1024B80028460BF0EFFB01463046FFF72DFF044698
:1024C8000028ACD13A4631462846FFF789FC044635
:1024D80020B141F6C231D2E70121EDE7064B9B68F6
:1024E800002B9CD0024606F58D713046984796E73A
:1024F8000D2494E7422492E71C090020024B1B6834
:1025080003B118470C2070474C000020034B5A8831
:1025180002801B7883700020704700BF440D0020A4
:1025280037B583781A2B054609D8042B05D901221B
:1025380002FA03F3134A134205D112241AE0292B95
:1025480001D03B2BF9D12888B0F5706FF5D26946D8
:102558000AF0CFFC88B9019B93F8182102F0FF0418
:102568006AB9AA7883F81921FF2283F818216846E6
:102578000AF0D5FE204603B030BD0224FAE70C2449
:10258800F8E700BF2000380438B504784278857829
:1025980004F0010352EA030104F0020401D11120FE
:1025A80038BDBCB9002DFAD0002B08BF144601E095
:1025B80000242546204609F0F5FE0028EFD02846DD
:1025C80009F0F0FE0028EAD0054B00209C74DD7469
:1025D8009882E5E7002BEBD114461D46EAE700BFD9
:1025E800440D002013B5008869460AF082FC18B132
:1025F8000224204602B010BD019A92F8E431DBB201
:1026080092F8A820002AF3D113F0FB0FF0D001981C
:1026180090F82A310BB13A24EBE790F8D23003F066
:10262800FF04002BF7D190F8C9309B0706D1FF2390
:1026380080F82A3168460AF072FEDAE70249CA30A1
:102648000AF0BAFED5E700BF3BD90000F0B507781D
:10265800EF2F85B004460D4603D91225284605B04C
:10266800F0BDB0F80130ADF80C309DF90C209DF8A4
:102678000C30002AF1DB9DF80D209107EDD1DA0628
:102688003FD49E0603F0030238D5002AE5D1180787
:10269800E3D46378190711D42179E278E07942EA22
:1026A8000122617942EA0142A17941EA0021207AB6
:1026B80041EA00418A42D0D81F2ACED9627A013A2B
:1026C800062ACAD8A27A032AC7D813F0040102D16D
:1026D800023A012A03D8E27A012ABED811B9A27CAB
:1026E800032ABAD813F01001227D19D0012AB4D1D7
:1026F800227E012AB1D8B1B91125AFE7032AC6D184
:10270800ABE713F0600FA8D103F00F0203F0070343
:10271800052BBED0931E012BBBD9002A9DD1B8E74B
:10272800022AE5D199E7DA0743D46378227D03F0DA
:102738001801082942D1022ADED11B0744D5BFB2AD
:1027480001213846FEF73CF9064600284BD1012105
:102758003846FEF7F7F8064600284AD0264B93F984
:1027680006100BF076F930460BF07DFA21462870FA
:10277800E07430460BF0C1F9E37E0546002B3FF4C8
:102788006DAF00287FF46AAF316B02466846FEF7EA
:102798004DFA306B2A46012109F0E5F9316B68469C
:1027A8000422FEF743FA306B2A46294609F0DBF982
:1027B80054E700F00BF90028B7D19DE7022ABCD0F6
:1027C800227F002AB9D097E7E279A37943EA022366
:1027D800227A43EA0243B3F5804FB0D90BF077FD74
:1027E8000028ACD188E709F09DFD0028BBD00C2556
:1027F80034E7072532E700BF1C09002070B50579CA
:10280800042D8AB003465CD84488B4F5804F58D864
:102818002D48465D284400214279857AC07BADF871
:10282800001042F0100242EA460242EA850242EAF9
:10283800C00202F01F028DF80020BDF80020ADF89C
:1028480009201A888DF80B208DF80E40120A240AE8
:102858008DF80D108DF810108DF80C208DF80F40A4
:102868005A7B8DF811205A798DF812209A79D3F86D
:1028780007008DF81320B3F80B209B7B8DF81A30D6
:102888007F238DF81B3001238DF8081005908DF8F3
:102898001D10ADF818208DF81C308DF81E3002A8D8
:1028A8008DF81F108DF820108DF823108DF8241046
:1028B8008DF821108DF822106946FFF7C7FE0AB07F
:1028C80070BD1220FBE700BFC0DD0100027803469F
:1028D80072B1427862B142881A2A09D982881A2AC2
:1028E80006D9044A006810609B88938000207047CE
:1028F80012207047440D0020024B02689A600020A5
:10290800704700BF440D00200378A3F10A02112A82
:102918009DBF024A0020137412207047440D002006
:1029280008B502F0AFF8FFF743FBBDE808400148DF
:1029380002F092B82809002010B50B4C012384F846
:10294800023102F0A7F80BF011FB0AF090FA04F23A
:1029580003112046FEF786FB002009F0A3F8BDE826
:10296800104000F009BF00BF2809002010B5064C30
:10297800064904F502700AF037F904F503700449B2
:10298800BDE810400AF030B92809002054000020A2
:102998005C00002010B5094C094904F502700AF0E2
:1029A80023F904F5037007490AF01EF904F50470C9
:1029B8000549BDE810400AF017B900BF28090020F2
:1029C800640000206C00002074000020014B93F884
:1029D800020170472809002010B5074C00F0A8FE36
:1029E800D4F808020AF0F8F8FFF78AFC00F0C2FFF2
:1029F800012384F8143210BD28090020014B93F8F4
:102A0800140270472809002010B5074CD4F80C02AE
:102A18000AF0E2F8D4F810020AF0DEF8FFF748FCF2
:102A2800002384F8143210BD28090020C208054983
:102A3800012300F0070003FA00F08B5C1843885468
:102A4800704700BF10000020014BD3E90001704718
:102A580010000020034B1868C0F30020400040F02D
:102A6800010070471000002008B504F0D7FE084A9E
:102A7800002332F82310814205D302EB83039B78AD
:102A8800044A137008BD01330C2BF2D10023F7E779
:102A9800D4DD01003D0B002010B544682388A4F85C
:102AA800683194F8683084F86711012B06D0022B3E
:102AB80004D040F249310620FDF786FB84F86A31DC
:102AC80094F86930012B01D0022BF2D184F86B31D4
:102AD800044904F5AF700AF06FFC002384F8243130
:102AE80010BD00BF6BCC0000406808490388A0F8FF
:102AF8005A3190F8603080F85C3190F8613080F895
:102B08005D3100F251100AF051BC00BF81CC0000C9
:102B18002DE9F0438946097999F80580446801F060
:102B2800070108F007084B1E08F1FF3202EA080205
:102B38000B40134394F8872094F88670232A85B0B5
:102B480005462CD104F18706002B43D140460AF0F4
:102B5800E2F868B394F86830984229D094F82421B0
:102B6800012A0CBF94F8262194F8642018EA020F71
:102B780030D0212F1CD094F8612018EA020F17D109
:102B88000138C0B2032805D8013B534ADBB2032BF6
:102B9800105C0AD940F21F210620FDF715FB212FF2
:102BA80040F0968004F18606CEE7D35C834211D8C4
:102BB80008460AF0B0F8B0B394F86930834232D0CE
:102BC80094F82431012B0CBF94F8273194F8653020
:102BD800194228D194F82431012B14D11E212846FA
:102BE800FFF75AFF212F12D16B68182283F80921A9
:102BF800092283F8862093F8C230002B3AD140F29C
:102C0800B321AE20C9E7002384F82431EAE7002382
:102C1800284633700AF094FC1821284605B0BDE810
:102C2800F0430AF0B5BCB9F8067003AB009342460E
:102C380020463B460AF07AF86A680446F8B992F8E2
:102C48002431012B18D101462846FFF725FF34709F
:102C58006B6803F18702964202D1002283F887202D
:102C68006B6803F1870296424FF000042DD1284685
:102C78000AF066FC00202CE082F82401E8E7B2F8AC
:102C88008030A2F84472DB431F44BFB247F6FD739D
:102C98009F4206D9282382F8A930284600F0DAFF97
:102CA800DEE792F887300D2B02D00A3B012B01D8C2
:102CB8002A23F0E79DF80C3082F846329DF80D3053
:102CC80082F8473225233370CAE783F8C240D1E738
:102CD800022005B0BDE8F08304DE0100044B0022A9
:102CE80083F822204FF6FF729A84DA841A85704797
:102CF8003E0B0020054B9A8C824201BF002283F8CC
:102D080022204FF6FF729A84704700BF3E0B0020C6
:102D1800014BD884704700BF3E0B0020094A034688
:102D2800908C4FF6FF71884206D192F82210012943
:102D380005D01A60012070470020186070470020F5
:102D4800704700BF3E0B0020064B93F82220012A53
:102D58001FBF0120DA8C83F822009A8408BF002064
:102D6800704700BF3E0B0020014B1885704700BF1D
:102D78003E0B0020064B0246198D988C884205D1DF
:102D880093F8220018B113600120704700207047A3
:102D98003E0B0020094B998C1A8D914201D00020DE
:102DA80070474FF6FF729A8493F82220002AF6D0D3
:102DB800002283F822200120704700BF3E0B00202C
:102DC800054B998C1A8D914203BF93F82200B0FAF3
:102DD80080F04009012070473E0B002050B90A4A94
:102DE8001346012003F8010B0868C2F801008A881D
:102DF8009A807047012805D1034B0A689A608A882F
:102E0800D8719A81704700BF680B002048B90A4BF7
:102E1800187880B1D3F80120B3F805300A608B80A8
:102E28007047012806D1044BD87920B19A680A6006
:102E38009B89F4E700207047680B002020B9054BF8
:102E4800187800F00100704701280ABF014B0020E4
:102E5800D879F6E7680B0020F7B500228B888DF843
:102E68000600ADF8043008680C4B8DF80720019D6A
:102E78001C78014603F5AC73D0B2844201D808200F
:102E880009E0D3E90076AE4208BF8F4203F1080398
:102E980002F10102F0D103B0F0BD00BF780B0020B1
:102EA80030B5094B01465C78002203F58173D0B236
:102EB800844201D8082005E013F8015B8D4202F135
:102EC8000102F4D130BD00BF780B0020F0B5254DCC
:102ED80095F8984189B0224605F29911684608F09C
:102EE800E3F82146684609F0E3FF0446B8B300EB6F
:102EF8004001C9B202A8FDF7E7FA601E95F8A16182
:102F0800C0B2012495F8982105E0731CB3FBF2F1D7
:102F180002FB1133DEB206F120030DEB030111F8B9
:102F2800203C002BF1D100EB400220326A4406EB32
:102F380046032B4412F8187C83F8A27112F8177C08
:102F480012F8162C83F8A37183F8A42101F8204CF9
:102F58000138AB19C0B2FF2883F89941D2D109B022
:102F6800F0BD00BF780B002070B5064688B00C464F
:102F7800002A4ED0294A92F8A131D01890F8991118
:102F880019B9FF212820FDF71FF903EB430111446C
:102F9800013391F8A251E57091F8A35191F8A41169
:102FA80061710021257180F8991192F89811B3FB8D
:102FB800F1F001FB103382F8A13192F8C23123B944
:102FC800174902F5DD700AF0F4F9657905F03F0557
:102FD80045F0400565710D220021684607F0F8FFAD
:102FE800E3788DF80F3023798DF80E3004AA042386
:102FF800694630468DF80D5007F08CFD9DF81F305E
:1030080023709DF81E3063709DF81D30A37008B0C2
:1030180070BD03216018FDF757FAD6E7780B00203A
:10302800D52E0000044B5A78824286BF1B1893F8AD
:103038004A010020704700BF780B0020044B5A78E3
:10304800824286BF1B1893F842010020704700BFD8
:10305800780B0020064B00224FF461711A8083F828
:10306800C32183F8C421A3F8C61183F8C22170478D
:10307800780B0020014B83F8C4017047780B0020BF
:10308800014BB3F8C6017047780B002030B50A4BE6
:103098005C7884420ED9184490F802012B3003EB77
:1030A800C004A5790D7053F830001060A388938090
:1030B800012030BD0020FCE7780B002002460748BD
:1030C80010B590F8C34124B1417821B1023002F023
:1030D80043FE204610BD0C46FBE700BF780B0020DE
:1030E8002DE9F74F2F4C9A466378834280468946EC
:1030F80056D9231893F8425185F00105F9B193F890
:103108004A31E3B945F002070135BAF1000F18D189
:10311800FA070AD5062101FB084104EB08105246BC
:1031280001F585718230FFF71FFFBB0734D504EB2B
:103138000810524649460230FFF716FF2CE02F468A
:10314800E3E794F8A1614FF0010B002DE0D0A3193B
:10315800019393F8991199B90092DAB100F0DAFB6A
:1031680006EB46012144019B81F8A2014FEA102C8D
:10317800009A81F8A3C1000C81F8A40183F899B1E1
:1031880094F898310136B6FBF3F103FB1166F6B2F9
:10319800013DDAE747F00407384603B0BDE8F08F91
:1031A8000027F9E7780B0020074B5A78824209D9A3
:1031B8001A1892F842212AB9062202FB003000F5BB
:1031C8008570704700207047780B0020064B5A78AE
:1031D800824281BF1B1893F83A01B0FA80F0400987
:1031E80098BF0020704700BF780B002030B500243E
:1031F800A0F84040B0F8444042F210754C43B4FB8C
:10320800F2F4A0F84440541E05FB0343B3FBF2F369
:10321800A0F84230084BB3FBF2F30133A0F8483072
:10322800838F05FB0344436BB4FBF2F45943846377
:10323800B1FBF2F2426330BD005A620270B5044637
:103248000D4659BB4FF41C7207F0C2FE012384F8E7
:103258008E306FF0360384F8D930042384F8DA30DE
:103268006FF03B0384F8DB306F2384F8DC306FF0B9
:103278003C0384F8DD306FF07F0384F8DF302B23C4
:1032880084F8D830FE2384F80E317F2384F8853003
:10329800202384F8DE5084F8FB3170BD012922D147
:1032A8000023A0F8BC3180F8B331154B8269134470
:1032B800B3FBF2F3C0F8B03040F6B833A0F8B4303E
:1032C8001146438C7830FFF791FF07F03BFD30B192
:1032D800E069FEF7A3FF10B984F89F51DDE70023EA
:1032E80084F89F31D9E70229D7D1B0F85232D0F803
:1032F8004C228169BDE870407830FFF777BF00BF86
:103308007FC3C901034B80F870101B680BB100889C
:10331800184770477C000020074B93F90030184489
:10332800142804DC10F17F0F03DB40B2704714202F
:1033380070476FF07E007047400D002007B57F236F
:103348000DF107008DF8073003F0C4FB9DF9073035
:1033580068B10A4A5078404243FA80F0142808DCE1
:1033680010F17F0F07DB40B203B05DF804FB18468D
:10337800FAE71420F8E76FF07E00F5E7400D00202B
:10338800024B00221A705A70704700BF400D00208F
:103398000346407898B1DB783F2B05D8084AD35CC0
:1033A8001B1A58425841704703F11402D2B2022A3C
:1033B80004D8034A134413F8AC3CF1E701207047E2
:1033C80008DE01003F2908B5C17003D80B4B5B5CD0
:1033D800437008BD01F11403DBB2022B04D8074B7C
:1033E800194411F8AC3CF3E7FF2904D04FF48A6183
:1033F8002A20FCF7E9FE0123EAE700BF08DE010006
:103408002DE9F347894669461446984609F071FD47
:10341800054600283AD1019E34B9012486F88D402A
:10342800204602B0BDE8F087D6F810A021465046E5
:1034380008F079F9014658B3174B5B88A34229D3A2
:10344800504608F0AAFA96F88D300580002B0CBF7C
:10345800494602210746857009F01EFF224641466B
:10346800F81C07F021FE2146504608F096F904465C
:1034780018B97E212B20FCF7A7FE684609F04FFFFC
:10348800019BA3F8AA5186F88D50C9E70124C7E724
:103498000446C5E72C46C3E7440D0020024B987D3F
:1034A800C04300F001007047440D002083230B70D7
:1034B800014B1B78CB7070475C0D00202DE9F84F4D
:1034C800D0F80480D8F8146030460D4608F057FA52
:1034D800044618B9FF211020FCF776FE0146304655
:1034E80008F05BFAB4F800B01FFA8BF7824617B9F8
:1034F80040F20311EFE71E4B1B6800F103098BB97B
:10350800B8F80030AB8000236B72A5F806B09AF8C3
:10351800003003F00303012B0FD0022B0DD040F233
:103528001D11D8E7B8F800003A46494698470446BE
:103538000028E5D12046BDE8F88F2B72304608F008
:1035480032FA044610B94FF49371C4E7FB2F02D93D
:1035580040F23511BFE7286810B94FF49B71BAE7FC
:103568003A46494607F0A0FD304608F079F9E1E708
:10357800800000202DE9F347DFF854818246894610
:1035880005270025D9F8103053B11B7A1BB98021C3
:103598001020FCF719FED9F81040B4B9002070E0EB
:1035A800D9F80440237A012BF8D0EFF3108372B6D0
:1035B800D9F804201268C9F8042003B962B6C9F81A
:1035C8001040237A0BB9A621E2E7267AF6B22772D1
:1035D800731E0B2B69D8DFE803F065061C3362689D
:1035E8003C6868686857636813B94FF4D771CFE7C8
:1035F8002046514698470420EFF3108372B6227A8A
:10360800052AD1B25BD12572C9F81050ABB962B6A0
:1036180013E0636813B940F2B711B9E75146204681
:1036280098470346C3F30723012BADF80400C0B243
:103638003ED0022BE0D1C9F810500028A2D020E0DB
:10364800636813B940F2BF11A2E7204698470020EB
:10365800D2E763680BB9B5219AE70B228AF80020F4
:1036680019881869AAF80310012200248AF8022090
:103678008AF805208AF8064008F0F2F8C9F81040E0
:10368800042002B0BDE8F087D8F800305146204643
:103698009847034660B1C9F810500220F1E74FF48B
:1036A800FB7175E740F2F91172E74FF4FE716FE7AD
:1036B80026720028E5D1002B7FF464AF6EE711B9BC
:1036C80040F21D2164E7002B7FF45CAF62B659E736
:1036D8008400002070B5144C1426231D32460021A6
:1036E800184607F075FC03460125257400210433AC
:1036F800324604F11800C4E9013307F069FC84F884
:1037080024500A4A04F11C03C4E906330023E36287
:10371800236384F83430C4F83530C4F8393084F879
:103728003D30136070BD00BF5C0D0020800000209C
:1037380010B5084C2378FF2B04D04FF4A07110204B
:10374800FCF742FD07F02EFA2070BDE81040FFF7A5
:10375800C1BF00BF1D00002010B5034C207807F042
:103768003DFAFF23237010BD1D000020014B18787F
:1037780007F044BA1D000020014B024A1A60704746
:1037880084000020C534000010B506490446FFF740
:10379800F1FE28B920460449BDE81040FFF7EABE0B
:1037A80010BD00BF740D0020600D002010B5134639
:1037B800027A22B140F299211020FCF705FD0A4651
:1037C800BDE810400146014809F0D0BD600D002059
:1037D800044890F834301BB903492C3009F0E3BD94
:1037E800704700BF5C0D002067D300000346064801
:1037F80090F83E203AB190F83D2022B900F8353BC8
:10380800024909F0D0BD70475C0D0020B5340000B6
:1038180010B50A46037A23B140F2A1211020FCF723
:10382800D3FC0146BDE810400148072309F09EBDBE
:10383800740D00201346027A0AB1037270470A46D3
:103848000146014809F092BD600D00201B234FF08E
:103858001B128384038482618382C260038539B921
:103868004FF4A473034AC3844384C261C3820261D0
:10387800704700BF480148010346F0B4B3F854202C
:10388800B3F84840B3F84460DF8FB3F8425094422D
:1038980028BF14460846B3F84C20B3F85610DC8706
:1038A8008A4228BF0A46B3F84610A3F8422091423C
:1038B80038BF1146A64238BF2646A742A3F844603F
:1038C800A3F846101FD1AA1A18BF0122B3F84A500C
:1038D800B3F85040B3F852709E8FB3F84010A54229
:1038E80028BF2546B3F84E409D87BC4228BF3C46BA
:1038F800AE42A3F8404002D1A14200D12AB1F0BCA7
:10390800034909F059BD0122E0E7F0BC704700BF48
:10391800C7D30000094AD2E90003434083EAB01143
:1039280081EA43214FEAF3435360054B1160584342
:103938004FEAF06000EB8000704700BF9C0D00204C
:10394800BB79379E094AD2E90003434083EAB011A4
:1039580081EA43214FEAF3435360054B1160584312
:103968004FEAF06000EB8000704700BF20000020A5
:10397800BB79379E10B50A4C09480821FCF7A4FD0D
:10398800D4E900231343F7D0064CFFF7DBFF206090
:10399800FFF7D8FF236860600343F6D010BD00BF6F
:1039A800200000209C0D0020174B184A9A60184AE6
:1039B8005A60184A1A60184A9A62184ADA62184A0B
:1039C800DA60184A9A61184A1A63184A1A62184A39
:1039D800DA64184A9A64184A5A62184B184A9A6064
:1039E800184A5A62184ADA62184A1A61184A5A6119
:1039F800184A9A61184A1A63184A9A64184ADA6483
:103A0800184A9A63704700BF8800002027D6000034
:103A180057D60000C3D600007FD70000D3D70000D8
:103A2800853D0000E9D70000C93F0000693E00005D
:103A3800B7D80000D3D80000B13E000094010020A0
:103A480043D6000089D800000BD80000AFD700008B
:103A58002FD80000093E000059D9000001D9000004
:103A6800F3D800006FD80000054B064A9A65064A4D
:103A78001A66064B064A9A65064ADA65704700BF19
:103A880088000020B5CD0000192B0000940100200B
:103A980005CD000057CE0000252A034610B508467C
:103AA80018D8012A19D9023A232A16D8DFE802F0D1
:103AB8001A1524232330153415233A454915154D75
:103AC80023236060767D1515151515151515151523
:103AD8001588939BFF2A00F08E8040F2D441512034
:103AE800FCF772FB5A681B78012B0CBF92F8103157
:103AF80092F81931037110BD5968D1F8C621426096
:103B0800D1F8CA2182605B68D3F80431C360F2E758
:103B18005B6893F81031EDE70146BDE810401846A0
:103B280000F018BA0F2303715923437100238371DE
:103B38006923C37110230372DDE75B6893F80A31C8
:103B4800D8E7BDE8104000F0F5B95A681B784BB9C2
:103B580092F8103133B192F80D31037192F80C31AB
:103B68004371C8E792F80B31037192F80A31F7E70D
:103B78005B68B3F854200271120A4271B3F812213B
:103B88008271120AC271B3F850200272120A42728C
:103B9800B3F8103183721B0AC372ACE75B6893F801
:103BA8002621027193F82731DAE75B6893F824211C
:103BB800012AF4D093F86420027193F86530CFE7B6
:103BC800114A1468002C96D001461A462320234631
:103BD800BDE8104018470C4A1468002C8BD00146E9
:103BE8001A462420F3E7084A1468002C83D00146BB
:103BF8001A462520EBE75B68BDE8104093F83F22A2
:103C0800D3F8401209F050BBA00200203F2803D887
:103C1800064B53F82000704700F11403DBB2022B67
:103C280001D8AC38F4E70020704700BF88000020B6
:103C38003F2803D8064B53F82000704700F11403BF
:103C4800DBB2022B01D8AC38F4E70020704700BF84
:103C580094010020F7B545682E6904464FF6FF77B2
:103C68000DF102010DF101023046ADF8027007F0C6
:103C7800AFFD01A9304607F0CEFD40B1019807F02D
:103C880090FE616800220272FFF7C2FDE8E704496E
:103C980005F1A00003B0BDE8F04009F087BB00BF04
:103CA800BBD50000F0B5044685B00D46FF2600F8E8
:103CB800896C10F88A3CF3B1184F3B781BB1482146
:103CC8001F20FCF781FA0C21381DFCF7FDFB3E7024
:103CD800002304F8893C2A46072302F8033BD4F85A
:103CE8000930C5F80330D4F80D305360D4F81130DA
:103CF800936005B0F0BD01A80C21FCF7E5FBA4F525
:103D08001673039AC3F8042101AB03CB44F8920C51
:103D180044F88E1C04F88A6CDAE700BFA40D002072
:103D280010B5054C23782BB90C21201DFCF7CCFBD2
:103D3800FF23237010BD00BFA40D0020024690F899
:103D4800CE31BBB990F8CF3103F0FF010BB10020A1
:103D58007047094B18780028F9D01970D968C2F84B
:103D68000411043303CBC2F8C601C2F8CA11FF23F9
:103D780082F8CE3101207047A40D002038B5426882
:103D880092F8873004460D463BB1132B05D0113B02
:103D98000B2B94BF0820012038BD92F8C83013B906
:103DA800204609F0C3FB6268D5F80E30C2F8BE3170
:103DB800D5F81230C2F8C2316368D5F81620C3F8B6
:103DC80000211A88A3F861226A68C3F86322AA68E6
:103DD800C3F867226368AA89A3F86B226368002581
:103DE80083F8CE516068054900F5167009F0DBFAD2
:103DF8006368152283F887202846CDE7AD3C00008C
:103E080038B5436893F887201C2A044604D04FF439
:103E1800DE711F20FCF7D8F993F8C8101D8800221E
:103E280083F8C72003F5C97069B10B4983F8C82026
:103E3800A3F89C5183F89B2109F0B5FA6368002226
:103E480083F8872038BD012283F89B11A3F89C5181
:103E5800024983F89E21EFE76BD700005DD7000089
:103E680038B54568AB6F13F0010417D14A680C4B9D
:103E7800896813400B4AC5F8D830C3F3076343F089
:103E880008030A4085F8DB30C5F8DC2009F04EFB52
:103E9800AB6F43F00103AB67204638BD0120FCE758
:103EA8002FC904F76FDB008010B5406890F88630A2
:103EB800042B27D14B688A68C0F8D830C3F307634E
:103EC80043F0080380F8DB300023C0F8DC2080F8DA
:103ED800C23080F8863090F8742102F0FF049AB955
:103EE8000388A0F8763180F875414B68C0F87831BE
:103EF8008B68C0F87C31054900F5B67009F053FAB3
:103F0800204610BD0124FBE71C46F9E74DD8000008
:103F1800406890F8743153B90388A0F876311A23B1
:103F280080F87531024900F5B67009F03CBA70475F
:103F38004DD8000010B50446FEF786FD034A044B31
:103F480002400B406260A36010BD00BF2FC904F798
:103F58006FDB008037B50C464568FEF775FD084AEB
:103F6800084B0A4095F8D8100192034000930B4083
:103F78008DF800306B4603CB6060A16003B030BDA4
:103F88006FDB00802FC904F7DB0410B5144604D595
:103F9800037D13B10023436310BD436B01334363B7
:103FA80009F0B7FCD0E90D239A42F5D30023436307
:103FB80002492046BDE8104009F0FEB9A9D8000022
:103FC80038B5446894F88630012B054602D0A36FB3
:103FD80098073AD494F8C9309A0715D40A7984F81E
:103FE800D320B1F80520A4F8D420B1F80720A4F80C
:103FF800D620D80743F0020284F8C9200FD5144907
:1040080004F1CA0009F0D8F994F8C930D90711D4D5
:10401800A36F9A0708D555214020FCF7D5F894F8E6
:104028002A31002BEBD1EFE743F00203A3672846C0
:1040380009F07CFA94F88630012B4FF0000003D188
:1040480084F8860084F8C20038BD0120FCE700BF70
:104058003BD9000070B545680446FFF76FF9054B7A
:1040680085F885001B6801461BB12046BDE87040F5
:10407800184770BDA8020020024B1B6803B11847FF
:10408800704700BFA4020020F0B5204E05463078E6
:104098000024147080B1431E7768DBB2181B012816
:1040A8000BDC07EBC40057F834604068884208BF4F
:1040B800AE4212D114700120F0BD1819461007EB5A
:1040C800C60E57F836C0DEF80460AC45C0F34700AA
:1040D8008E412CBF03460446E0E7B54271EB000071
:1040E80002D214700020E7E707EBC30057F833400B
:1040F8004068884208BFAC4201D11370DBE7A54293
:10410800814128BF01331370ECE700BFC40D0020C4
:1041180010F0070208B503D063214820FCF754F8D3
:1041280018B1034B197258601A70C80008BD00BF57
:10413800C40D0020014B00221A707047C40D0020E6
:10414800014B187A704700BFC40D00202DE9D343F6
:1041580009F020FC0DF1070207460E46FFF794FF11
:1041680098B9114C2278237A93420ED0616813468D
:104178006FF0604E9DF80700984209D301EBC00329
:10418800C3E9007601322270012002B0BDE8D08375
:1041980003EB0E0001EBC000D0E90089013BC0E948
:1041A8000289DBB2E6E700BFC40D002037B509F08D
:1041B800F1FB0DF10702FFF767FF0446A0B10C4AB7
:1041C8009DF8070013785568013BDBB213701A1A83
:1041D800D2B2411CD200834238BF002205EBC10194
:1041E80005EBC00006F0AEFE204603B030BD00BFB0
:1041F800C40D00200A46822302F8033B04480368E2
:10420800C1F803304368536083689360704700BF08
:10421800CD0D002002481622002106F0D9BE00BFAD
:10422800CD0D002082B002AB03E903000B48437DAB
:1042380093B1530610D50A880280D1F82022B1F82C
:1042480080304260D1F824220549826043800222EE
:104258000C3002B0FFF7EEBA02B07047CD0D002067
:10426800FD410000074A03461068D3F85120C0F802
:104278000320B3F85520A0F8072093F8501008F051
:104288008FBF00BFEC0D002070B504460E46658850
:10429800407F15F00401134618BF04F15F01324650
:1042A800FEF71EFF4207054623D4C3070BD501239B
:1042B80084F85030607FFEF777FF0368C4F8513008
:1042C8008388A4F8553015F0020F4FF001050ED081
:1042D800094B84F85E501868D4F85F30C0F809308C
:1042E800B4F86330A0F80D30294608F062FF28467C
:1042F80000E0002070BD00BFEC0D002038B5C38D74
:104308000F4D0133C3F30E03C385AB7C04462BB1B9
:1043180002F0D2FB01F052FD0023AB7400232B7195
:1043280094F871302BB101212046BDE8384007F0E0
:10433800BABF637C13B1E28D9A42F4D20021F3E74D
:10434800EC0D002010B5094C2379012B02D02379FC
:10435800022B05D1A37C1BB102F0AEFB01F02EFDB0
:10436800E069BDE81040FFF7C9BF00BFEC0D0020B1
:1043780070B5294C2379012B07D02379022B04D05F
:1043880040F657412D20FBF71FFFA0B90125A37C5C
:104398001BB102F091FB01F011FD002D3AD0E0694C
:1043A80007F0F9FE002830D002F06EFA236ABDE863
:1043B80070409B6818472168E26911F8095B02F1AF
:1043C8005103E80992F8502008F054FD0028DDD088
:1043D8002068002108F012FF0028D7D02379E0696F
:1043E800012B05D02379022B02D04FF44361C9E792
:1043F8002379226A03F180435269013B05F00F01DA
:1044080052F8233098470546C1E7E069BDE8704097
:10441800FFF774BF70BD00BFEC0D0020074A0346CC
:10442800D06903B909B9FFF769BF1379126A03F1B3
:1044380080431269033B52F823301847EC0D0020E3
:104448002DE9F043032985B0054690467BD090F8C6
:1044580070300529DBB202D14288D60760D5002B1F
:104468005ED10127DFF8E89099F81260B6B108F03C
:1044780036FD082888F8000014D002AA0DF10701BB
:10448800FEF704FE20B940F6CF612D20FBF79CFE15
:104498009DF8070002A909F089FA064698F8003045
:1044A800082B08D1D9F8001011F8030BC0F38010BD
:1044B80009F07CFA0646D9F8001095F8572011F84B
:1044C800030B05F15803C0F3801008F0D3FCD9F8AA
:1044D8000010044611F8030BC0F3801008F0F5FC37
:1044E8008146FEF773FE014640B1B9F1080F1BD0B3
:1044F8004846FEF797FD80F00101C9B298F8000020
:10450800082815D094B96B7F1C1A604260416B88EB
:104518005A0706D421B996B9EB7C93B1BB4210D0A7
:10452800002005B0BDE8F0830021E7E70120EEE7B1
:1045380014B181F00104E4B204F00100E7E7304669
:10454800EFE70120EDE743889B07E9D5022789E7D4
:10455800EC0D00202DE9F04F85B008230DF107027E
:10456800052104468DF80730FFF76AFF064620B993
:104578000026304605B0BDE8F08F744F3968FA7CE4
:1045880011F8030B07F11403C0F3801008F072FC54
:1045980080460028ECD13B68216A184691F88E20A5
:1045A80010F8035B02EA551202F0010281F88E202E
:1045B800D3F80320C1F803208288A1F80720194600
:1045C800226A11F81F0BC0F38010907009798DF8DA
:1045D8000C10D3F80F10D3F81F00D161597D029049
:1045E800187D090441EA0021D87C01435162B3F8DF
:1045F800191082F8728040F2E24909FB01F19161D9
:104608009D7DC5EB451105EB810505EB85056D0025
:104618009585B3F8171009FB01F19162B3F81B10E7
:104628001184B3F81D10518493F8243003F01F014E
:104638005B0982F89A1082F8A031256A94F912B0C1
:1046480002A905F18E0008F003FD40F20113A5F858
:1046580068304FF0FF0A85F86AA0414605F130003E
:10466800FFF7F4F859462846FEF74CFE236A84F80B
:104678007B801A88A4F87C2084F899A04FF6FF72F2
:10468800A4F89A209A69B2FBF9F2A4F892201A8C3D
:10469800A4F894205A8CA4F8962093F8A02184F8C2
:1046A8009820227F9DF8070004F186015AB394F8F8
:1046B8005020012A27D194F8562002F0C002402A3F
:1046C80021D1D4F85120C4F88620B4F855208A8026
:1046D8009A7884F87F20082803F1030504F1800202
:1046E800D3F8033004F18C0127D0C4F88C30AB88A0
:1046F8008B8004F17F01FEF7C9FC40B940F6B63162
:104708002D20FBF761FD0022C4F88620DFE794F82E
:104718007F3043F0020384F87F3004F172000C49C3
:1047280008F041FE0B4B206A1B6800223A71002BEF
:104738003FF41FAF214698471BE7C4F88030AB8889
:1047480093800023C4F88C308B80E6E7EC0D0020C2
:10475800E1D90000B0020020032973B5044604D053
:10476800052952D0012002B070BD08230DF10702BF
:104778008DF80730FFF764FE0028F3D0237C284D1E
:1047880003B39DF8070094F8BE30DBB9237884F8AA
:10479800BF30082804F1C10228D004F1C001FEF797
:1047A80075FC20B940F645712D20FBF70DFD94F8F6
:1047B800C03043F0020384F8C0301A4904F1B6004F
:1047C80008F0F1FD2B68062204265A701E70204658
:1047D800FFF748FD94F84020E16B286808F0FFFCDB
:1047E80028682E7102F0F0F80020BCE7286803461C
:1047F80013F8031BC1F3801184F8C010D0F803101C
:10480800C4F8C1109B889380D7E7074B1B6823B176
:10481800984780F00100C0B2A5E71846A3E700BF9B
:10482800EC0D0020C9D90000AC020020F8B5044600
:104838000F4619B300F12805284609F0B6FAA0B9C1
:1048480063881A072ED5284609F0C6FA0646284670
:1048580009F0ABFA301AC0B209F0CEFA474A9368A9
:1048680003442846936009F07CFA284609F07EFA4A
:1048780001F078FF2179252001F092FE3F4E94F84F
:104888005E2030680023037043706388103B0D2B53
:1048980064D8DFE803F05F635B0C634063636363C2
:1048A800636363402046BDE8F840FFF727BD062351
:1048B8004370202303702046FFF7D4FC638823F05D
:1048C80008039BB2152B05D094F83820616B30682B
:1048D80008F076FC306802F077F803232179337109
:1048E800002001F06BFF054607B9F06063881B07DD
:1048F80004D509F07EFA0544C4F8D8506388103B03
:104908000D2B36D8DFE803F038352F2F352F353506
:1049180035353535352F0C2343700346212103F8EF
:10492800091B52B1D4F85F20C0F80920B4F86320FD
:104938009A80012108F03DFCBDE7A26DC0F809206E
:10494800B4F85C209A8094F85710F3E706230370B4
:104958004370B0E7022303700623F9E740F234619D
:104968002D20FBF731FC21790120BDE8F84002F049
:10497800BDB840F6CA41F3E7F8BD00BFEC0D002012
:1049880038B54388102B044604D1BDE838400121CE
:10499800FFF74CBF0B4DAB7C23B101F0F5F940207C
:1049A80002F07EF8286802F00FF8608810F0040022
:1049B80002D1217902F09AF8002002F04DF8012383
:1049C8002B7138BDEC0D0020024B0121D869FFF78F
:1049D8002DBF00BFEC0D002010B5134CA37C1BB1FC
:1049E80002F06AF801F0EAF9E06907F0D4FB70B167
:1049F8002379E069012B0FD12379226A03F18043DF
:104A0800D268013BBDE8104052F823301847E069EE
:104A1800BDE81040FFF772BC2379022BECD040F6BA
:104A280058312D20FBF7D0FBEC0D002010B50948BC
:104A3800037903F0FF0453B918222146043006F025
:104A4800C7FA02F039F801F0B9F9204610BD0C2474
:104A5800FBE700BFEC0D002010B5094C00232371C3
:104A68002060FFF7E3FF20B140F2EF212D20FBF794
:104A7800ABFB236A13B940F2F221F7E710BD00BF80
:104A8800EC0D0020014B024A1A627047EC0D002021
:104A98007C4D0000034B044A1A60044B044A1A6018
:104AA800704700BFAC0200205D450000B002002046
:104AB8009D2100002DE9F041067DB31EDBB2012BDC
:104AC80004468CBF4FF000084FF001087EB3B71EB4
:104AD80018BF0127012B36D800F1580190F857006C
:104AE80008F0F3F9082805462DD0FEF7A7FA58BBB9
:104AF800657784F81C8084F85070FEF7C1FA054683
:104B080009F0A2FB174BA5FB03351B1845EB010564
:104B18000022C4E9123584F85E2011462046FFF7CA
:104B2800B3FB70B940F27A412D20FBF74DFB3746B5
:104B3800082504F151010020FEF768F90028D7D1B3
:104B48000020BDE8F0810825022EF2D0E37E002B7C
:104B5800F6D0D4F81530C4F85130B4F81930A4F8A8
:104B68005530C5E740420F00F0B5484E327985B060
:104B7800044602F0FF0312B90278FF2A04D140F676
:104B8800B7112D20FBF720FB3382B3607371B3712B
:104B980080F871303E4B00933E4B01933E4B02939D
:104BA800336A68465B68039301F006FF01F03CFD39
:104BB80001F082FF01F002F9384801F0C9FD04F163
:104BC8002805374801F0F2FE284609F0CAF82846B9
:104BD80009F0CCF801F0C6FD2179252001F0E0FCB0
:104BE80094F9120001F0AEFD04F13401206B06F0D7
:104BF800D7FF04F13C010746206B06F0F8FF054695
:104C0800E7B194F82430CBB1B4F92E50ED43ED0F51
:104C1800237F13B963885B0709D5D4E912126FF0B3
:104C280000439A4208BFB1F1FF3F0ED1ADB93068D9
:104C38000330FEF743FAB07405B0F0BD002DE7D09D
:104C480094F82550002DDFD1E2E709F0FDFAD4E908
:104C58001223904271EB0303E8D301222946204630
:104C6800FFF712FB68B1FEF70BFA054609F0ECFAFC
:104C78000C4BA5FB03351B1845EB0105C4E91235A0
:104C8800D5E7002DD3D040F6F4117AE7EC0D0020DB
:104C9800E14900007943000025440000D6BE898E12
:104CA8005555550040420F00F7B50446FFF75CFF25
:104CB80000212046FFF7BAFDA36E0BB101221A604E
:104CC8006388DB0721D50023114E256ACDE900331F
:104CD800FF23F37405F10A076846FBF7ABFEA0B99A
:104CE800009CA542F8D06A7A607A3B4604F10A0132
:104CF80008F0C0F80028EFD0A378F374D4F80300C4
:104D08007061044BB4F807209A8003B0F0BD00BF6F
:104D1800EC0D0020000E0020024BD8611B6A1B68B6
:104D2800184700BFEC0D002043881B0710B5044648
:104D380011D5036A0A493C2280F87B201B88A0F819
:104D48007C30FF2380F899304FF6FF73A0F89A3033
:104D5800723008F028FBFF2384F8713010BD00BFC3
:104D6800E1D9000033DA00008949000039DA00008F
:104D780061470000B14C00004D430000D1490000DC
:104D88006C4D0000704D0000784D0000013802287D
:104D980008B503D9C3212F20FBF716FA13290A4BAC
:104DA80005D811290CD8102907D0D121F3E71529E6
:104DB800FBD103EB4003D88801E033F8100008BDAD
:104DC80003EB40039889FAE7A4DE0100F8B52F4BFE
:104DD8001A88402842EA00021A8005D104219868FE
:104DE800BDE8F840FDF706B9802801D10521F6E7AE
:104DF80000F00302032A04D140F696213120FBF784
:104E0800E3F910F0020418BFD960C50705D5CA78C0
:104E18001961062A0DD00B2A18D02CB1DA68D2787D
:104E2800052A1FD00B2A2AD0820644BF08221A75E9
:104E3800F8BD9A6892F887101829EED10026002745
:104E48000121C2E9386782F88B10E6E79A6892F880
:104E58008710122901BF002182F88B10012182F8E6
:104E6800C810DAE79A6892F887101629DCD100246E
:104E78000025C2E93A45012182F88C10D4E79A68E6
:104E880092F887101129CFD10021F5E7100E0020E4
:104E980013B5044601A8FDF741FF20B940F6870184
:104EA8003120FBF791F922220021019806F090F8B1
:104EB8000198032108F0F0F90198037823F0100312
:104EC80003702146FEF77EFA019906482246FEF74E
:104ED800E3FDFDF739FF10B940F69101E0E702B0B4
:104EE80010BD00BF140E002070B5274CA36893F8BE
:104EF800466293F84752002E3FD193F86810002D70
:104F08003DD193F8692083F8681083F86920FF225F
:104F180083F86A201D4B1B680BB1A0689847A368EB
:104F280093F82431012B02D056EA050303D0184820
:104F38000021FDF7B1FDA068303008F068FA054699
:104F4800A06800F23511FEF797FCA0680621FDF76E
:104F580051F8A068303008F05AFA8542044610D259
:104F680002F020FE0146601B322838BF322005F0CF
:104F780007F9B0FA80F0400970BD3146BFE72A460C
:104F8800C1E70120F8E700BF100E0020C002002092
:104F9800140E0020002908BF1F21172810B503464A
:104FA8000BD80D280DD90E3809280AD8DFE800F0EB
:104FB8000B0909090B090B09110BA0F12303022B9B
:104FC80023D9002010BDBDE810400021184608F084
:104FD80017BF114CA36893F88620212A09D1201DF8
:104FE800FDF75AFDA368002283F8862083F8C220C3
:104FF800E7E72E2AE5D193F88730A3F12002062AA5
:10500800F0D92E2BEED02A21E9E7044B1B68002BA0
:10501800D7D0BDE810401847100E0020B802002075
:10502800114B09790246986890F88630212B11D0E7
:105038002E2B0FD0282B0FD0042B0FD00F2B0FD0D7
:105048001D2B0FD090F88730232B14BFFE2017207C
:10505800FFF7A0BF1620FBE72320F9E70E20F7E7AC
:105068001220F5E71420F3E7100E002008B50C4BCA
:105078009B6893F80E21FE2A04D040F69601312051
:10508800FBF7A2F883F80E0111B9A3F8C41008BD04
:105098000022A3F8BE20012283F8C220F7E700BF50
:1050A800100E00200C4A117D91B938B99068B0F8FB
:1050B8005810828F91420BD8FCF78EBF13881B07BC
:1050C80008D5936893F88800073818BF01207047FF
:1050D8000020704701207047100E002010B5154BB6
:1050E800DB681979436893F88620092A09D193F86F
:1050F80009218A4205D1002283F8862083F8C2203C
:1051080010BD9A6F12F0080406D022F00802BDE81C
:1051180010409A6708F014BAFF2905D1332283F8A2
:10512800862083F83C42EBE740F242513120FBF7FE
:105138004BF800BF100E002010B50B794268172BF2
:1051480092F8862004460CD80D2B0CD9A3F10E0139
:10515800092908D8DFE801F009070707090709073F
:105168001009232B26D0002010BD22460121BDE8BE
:105178001040184608F044BE212A01D02E2AF2D148
:10518800204608F0CAF9636893F88720222AEAD0F3
:1051980093F8D92022F0010283F8D920626892F8A6
:1051A800D93023F0080382F8D9301A212046FDF7B8
:1051B80073FCD8E7282AD6D1024B1B68002BD2D023
:1051C8009847D0E7BC020020F7B57F4C0546002879
:1051D80040F0AC8023881F0727D5A36893F80E21D9
:1051E800FE2A04D140F2BE513120FAF7EDFFFE222B
:1051F80083F80E2193F887201A2A07D183F8C7006D
:10520800201D08F09DF9A36883F88750A36893F8D8
:105218008620202A32D0332A3ED093F88820072AC5
:1052280002BF0222627583F80E212388DE073CD470
:105238002388580700F1A980990713D5E368DE7819
:105248000D2E00F0AA80112E00F0A980072E00F084
:10525800A8803046FEF7ECFC0346002800F0A38047
:105268005A4898472388DA0660D5A36893F88720B8
:105278000A2A5BD10B2283F8872057E093F887200E
:10528800A2F12001062901D92E2A03D12E2283F862
:105298008620C2E72122FAE7012283F83D22002274
:1052A80083F8862083F8C220B7E7A368276993F8B4
:1052B8008730113B0B2B0BD8FB78023BDBB2092B59
:1052C8007DD8012202FA03F340F23332134276D03A
:1052D8003846FEF75DF8FE7820B931463B4808F0BD
:1052E80057F945E0012E01D9162E0FD1A36893F87E
:1052F800860008F03AF948B1A36893F88620202A76
:1053080004D0212A0ED12E2283F88620112E34D0E3
:1053180026D8072E33D00D2E33D03046FEF776FC34
:10532800034621E0162E0CBF20250225237D1B07EE
:1053380013D5A36893F88730113B0B2B41D900266E
:1053480001A903200196FBF7EBFF019B2BB11E720D
:105358000C22A1680198FEF729FA284603B0F0BD8F
:10536800142EDAD11A4B1B686BB12169174898477C
:1053780000283FF45DAF0546D8E7164BF5E7164B16
:10538800F3E7164BF1E7F978A8E7A26892F88820C6
:10539800062A04BF012262754EE7114B60E7114BE4
:1053A8005EE7114B5CE7FF2E06D1A268332182F835
:1053B800861082F83C0255E740F2B25114E70825FE
:1053C800B4E70825C9E700BF100E0020140E00201E
:1053D800B402002015DF00004151000029500000F0
:1053E800A5DE0000C3DE0000E55000002DE9F04115
:1053F800A44CB4F800800E46A16818F4007F0ABFD8
:10540800B1F8B8200023013201F1780507461ABF28
:10541800A1F8B83081F8B731A1F8B820284608F0CB
:1054280064FD28B1434601F596722846FEF7ACFDA7
:10543800238803F4C06333B1A06890F88A30002B46
:105448004AD0032B4ED0A168238891F88A20012ADC
:1054580004D11D0544BF022281F88A20002F40F0A4
:10546800AC8058065DBFB1F8D021013292B23A46FD
:10547800A1F8D02103F00A020A2A0DD1E268D278F5
:10548800022A09D123F0080330462380FFF79CFE47
:1054980008230643F6B223803046FFF795FEA3683B
:1054A80093F80E210643FE2AF6B24ED1002E4CD1B7
:1054B80093F88820063A012A47D993F81831B3B1EE
:1054C800A36893F81921A3F8BC6083F8102101217F
:1054D8000220FFF7CBFD38E0012180F88A10FCF7A5
:1054E80089FDB0E7022380F88A300121F7E7A06838
:1054F80090F88730A3F11005EDB20C2D11D8113BAF
:105508000B2B00F25181DFE813F007014F014F0127
:105518004F010A0112014F014F014F014F014F0185
:105528003D01836FD90702D531460920D1E79A0793
:1055380040F19A8031460C20FFF798FDA26892F856
:10554800C93043F0010382F8C930A568B5F8B03115
:1055580095F8B4810133A5F8B031B8F1000F00F027
:10556800E181FBF7CFFE10B10023A5F8B031A168A7
:1055780091F88A80B8F1010F40F20A8291F88830D8
:10558800072B40F0E781B1F8B830022B40F20082D7
:10559800B1F8BA500135ADB2B1F880302B44A1F85A
:1055A800A83191F8B531002B00F0F6810123A268EB
:1055B800B2F880100B44A2F8AC312288A3685506D3
:1055C8005BBFB3F8BC21B3F8AE1100225218A3F8A0
:1055D800BC2193F818312BB9A36893F88830063B9F
:1055E800012B07D8A368B3F8BC20B3F8AE110A445E
:1055F800A3F8BC20A36893F8C20030B1B3F8BE206A
:10560800B3F8AE110A44A3F8BE2093F9C6100029D6
:10561800C1BFB3F8C420B3F8AE515219A3F8C420DF
:1056280093F8A9205AB9002F40F04B82627D022AD4
:1056380040F0008293F81021062A18BF1622A368AA
:1056480093F8A8302BB9A3680F4883F8A920FEF770
:1056580001FBA06808F093FCA368002283F8B3213B
:10566800BDE8F041FDF796BB590702D53146132036
:105678002FE71A070AD590F8083180F8103131461B
:10568800072026E7100E0020140E002013F0300F1C
:105698003CD090F81B31002B40F01982A36893F896
:1056A8001A31E3B1A06890F88730252B00F58D7189
:1056B80000F2462228D090F88630A3F1250CDCF1C0
:1056C800000343EB0C0307F0A6FEA268936F23F0D8
:1056D800200343F010039367002382F81A31A0686F
:1056E800836FDA0640F1F38100F23511FEF7C4F852
:1056F800A368B3F85220A3F81021B3F85620A3F8F2
:10570800122100211520E4E60123DCE75B0640F1C5
:10571800DE8100212420DCE600210B20D9E6FEF7FB
:105728000DFB00283FF411AF00210420D1E690F8CA
:105738003832012B08D100210520FFF797FCA36818
:10574800002283F8382200E7A36893F83832022B46
:10575800D8B27FF4FAAEA36893F8C85006221DB1F8
:1057680083F810210021E8E7B048032107F0F7FE8D
:10577800A36893F8D83013F0040F294614BF1120FA
:105788000D20DAE700210620A3E693F82421022A57
:1057980002D1002117209CE693F82421012A03D185
:1057A80093F82531002BF4D0A36893F886206AB9C2
:1057B80093F88720103A0C2A40F2998193F8B62082
:1057C800002A00F094810121122082E6092A40F083
:1057D8008A8193F8092183F81021012150E7A368F1
:1057E80093F82A319BB1A36893F8C93013F00305E5
:1057F8000DD101210C20FFF739FCA36893F8C920CB
:1058080042F0010283F8C92083F82A519BE7A36874
:1058180093F81A3153B3A36893F81B3133BBA068CC
:1058280090F88730252B00F58D7100F246221BD0A9
:1058380090F88630A3F1250CDCF1000343EB0C0350
:1058480007F0E9FDA368002283F81A21012114203A
:10585800FFF70CFCA368B3F85220A3F81021B3F8A3
:105868005620A3F8122170E60123E9E7A36893F80C
:105878002421012A4CD193F82531002B48D1A16865
:1058880091F88730A3F12002062A41D92E2B3FD068
:1058980091F86850012D06D0022D04D040F249310C
:1058A8000620FAF791FC91F86900012801D0022836
:1058B800F4D1022D91F826210AD0012A14BF002222
:1058C80001223AB90A3B042B12D90121162000E61D
:1058D800022AF3E7022891F8272117D0012A14BFDA
:1058E80000220122002AEDD050480021FDF7D4F80B
:1058F800A36893F88620002A7FF427AE93F83C32F9
:10590800002B3FF422AE0121FF20E2E5022AE6E760
:10591800474B1B68002BEBD044489847FE28E7D03C
:105928000121D6E5FBF7E8FC08B1A5F8B081FBF743
:10593800F1FC00283FF41BAE95F8B7310133DBB218
:10594800022B85F8B73182BF0023A5F8B03185F85E
:10595800B7310CE691F8B6301BB191F886300F2BB1
:1059680016D1B1F8BA50B1F8B83001F17800ED1A93
:10597800033D08F0BAFA68B1D1F8B030D1F8AC20DC
:10598800033B9B1A9D42A8BF1D46012D3FF703AE5E
:10599800012501E62B46F5E7012D7FF607AE91F8C4
:1059A800873013B10B2B7FF401AE91F88630002BB2
:1059B8007FF4FCAD91F88830002B7FF4F7ADB8F197
:1059C800020F7FF4F3AD91F8B731002B7FF4EEAD01
:1059D8000869B1F82E8005F04DFF00283FF4E6ADC8
:1059E800A26892F80E31FE2B7FF4E0ADB2F8AA312E
:1059F800012B7FF6DBADB2F8B011138C9942BFF4DE
:105A0800D5AD5B1A9BB2013DADB2B5FBF8F59D4231
:105A180028BF1D4618FB05F3003D03F1010318BF1D
:105A280001259BB282F8B251C1E500BF140E0020D7
:105A3800C4020020012A09D193F88920002A7FF4A2
:105A4800FEADA0680021FCF7D5FA05E65EB1F006C8
:105A580035D4310735D4B20635D4B30735D140F63D
:105A6800182131201DE738B1B3F8BE00B3F8C020C3
:105A7800904201D32222E2E5002905DDB3F8C410E3
:105A8800B3F8C0209142F5D2B3F8BC10B3F8BA20ED
:105A980091420BD2A36893F88A10B3F8B82051B199
:105AA800B3F8BA309342CCD80822C8E593F8183135
:105AB800002BDFD1EEE7052AC3D93E22BFE51E221F
:105AC800BDE53D22BBE52322B9E52A22B7E5A36857
